{"abi":[{"type":"function","name":"activeCredentialIds","inputs":[{"name":"","type":"uint256","internalType":"uint256"}],"outputs":[{"name":"","type":"string","internalType":"string"}],"stateMutability":"view"},{"type":"function","name":"getMerkleProof","inputs":[{"name":"credential_id","type":"string","internalType":"string"}],"outputs":[{"name":"root","type":"uint256","internalType":"uint256"},{"name":"path","type":"uint256[]","internalType":"uint256[]"},{"name":"indices","type":"uint8[]","internalType":"uint8[]"}],"stateMutability":"view"},{"type":"function","name":"issueCredential","inputs":[{"name":"credential_json","type":"string","internalType":"string"}],"outputs":[],"stateMutability":"nonpayable"},{"type":"function","name":"revokeCredential","inputs":[{"name":"credential_id","type":"string","internalType":"string"}],"outputs":[],"stateMutability":"nonpayable"},{"type":"function","name":"verifyCredential","inputs":[{"name":"credential_id","type":"string","internalType":"string"}],"outputs":[{"name":"","type":"bool","internalType":"bool"}],"stateMutability":"view"},{"type":"event","name":"CredentialIssued","inputs":[{"name":"id","type":"string","indexed":true,"internalType":"string"},{"name":"issuer","type":"string","indexed":false,"internalType":"string"},{"name":"subject","type":"string","indexed":false,"internalType":"string"}],"anonymous":false},{"type":"event","name":"CredentialRevoked","inputs":[{"name":"id","type":"string","indexed":true,"internalType":"string"}],"anonymous":false}],"bytecode":{"object":"0x6080604052348015600e575f80fd5b50611f758061001c5f395ff3fe608060405234801561000f575f80fd5b5060043610610055575f3560e01c80633813688b146100595780633aa18d9a1461008b5780635e9a2d28146100bb578063811f9487146100d7578063bb3670ab146100f3575b5f80fd5b610073600480360381019061006e9190610e6f565b610123565b60405161008293929190611048565b60405180910390f35b6100a560048036038101906100a091906110b5565b6104e4565b6040516100b29190611140565b60405180910390f35b6100d560048036038101906100d09190610e6f565b61058a565b005b6100f160048036038101906100ec9190610e6f565b6107d9565b005b61010d60048036038101906101089190610e6f565b6109ed565b60405161011a919061117a565b60405180910390f35b5f6060805f7fffffffffffffffffffffffffffffffffffffffffffffffffffffffffffffffff90505f5b6001805490508110156101ad5785805190602001206001828154811061017657610175611193565b5b905f5260205f200160405161018b91906112b9565b6040518091039020036101a0578091506101ad565b808060010191505061014d565b507fffffffffffffffffffffffffffffffffffffffffffffffffffffffffffffffff8103610210576040517f08c379a000000000000000000000000000000000000000000000000000000000815260040161020790611319565b60405180910390fd5b5f60018054905090505f5b81816001901b101561023a57808061023290611364565b91505061021b565b5f816001901b90505f8167ffffffffffffffff81111561025d5761025c610d4b565b5b60405190808252806020026020018201604052801561028b5781602001602082028036833780820191505090505b5090505f5b848110156102f757600181815481106102ac576102ab611193565b5b905f5260205f20016040516102c191906112b9565b60405180910390205f1c8282815181106102de576102dd611193565b5b6020026020010181815250508080600101915050610290565b505f8490505b82811015610332575f82828151811061031957610318611193565b5b60200260200101818152505080806001019150506102fd565b508267ffffffffffffffff81111561034d5761034c610d4b565b5b60405190808252806020026020018201604052801561037b5781602001602082028036833780820191505090505b5096508267ffffffffffffffff81111561039857610397610d4b565b5b6040519080825280602002602001820160405280156103c65781602001602082028036833780820191505090505b5095505f8590505f5b848110156104cb575f60018318905084811015610459578381815181106103f9576103f8611193565b5b60200260200101518a838151811061041457610413611193565b5b60200260200101818152505060028361042d91906113d8565b8983815181106104405761043f611193565b5b602002602001019060ff16908160ff16815250506104ae565b5f8a838151811061046d5761046c611193565b5b60200260200101818152505060028361048691906113d8565b89838151811061049957610498611193565b5b602002602001019060ff16908160ff16815250505b6002836104bb9190611408565b92505080806001019150506103cf565b506104d582610a66565b98505050505050509193909250565b600181815481106104f3575f80fd5b905f5260205f20015f91509050805461050b906111ed565b80601f0160208091040260200160405190810160405280929190818152602001828054610537906111ed565b80156105825780601f1061055957610100808354040283529160200191610582565b820191905f5260205f20905b81548152906001019060200180831161056557829003601f168201915b505050505081565b5f8151116105cd576040517f08c379a00000000000000000000000000000000000000000000000000000000081526004016105c490611482565b60405180910390fd5b5f80826040516105dd91906114da565b90815260200160405180910390205f0180546105f8906111ed565b90501161063a576040517f08c379a00000000000000000000000000000000000000000000000000000000081526004016106319061153a565b60405180910390fd5b5f5b60018054905081101561071a5781805190602001206001828154811061066557610664611193565b5b905f5260205f200160405161067a91906112b9565b60405180910390200361070d5760018080805490506106999190611558565b815481106106aa576106a9611193565b5b905f5260205f2001600182815481106106c6576106c5611193565b5b905f5260205f200190816106da919061174f565b5060018054806106ed576106ec611834565b5b600190038181905f5260205f20015f6107069190610bf5565b905561071a565b808060010191505061063c565b505f8160405161072a91906114da565b90815260200160405180910390205f8082015f6107479190610bf5565b600182015f6107569190610bf5565b600282015f6107659190610bf5565b600382015f6107749190610c32565b600482015f6107839190610c32565b600582015f6107929190610c50565b5050806040516107a291906114da565b60405180910390207f19d981dae71c0e172d789c8bef41062792bc14fa2e555bba0bae3c104d2b2a4160405160405180910390a250565b5f818060200190518101906107ee9190611b9c565b90505f815f01515111610836576040517f08c379a000000000000000000000000000000000000000000000000000000000815260040161082d90611482565b60405180910390fd5b5f80825f015160405161084991906114da565b90815260200160405180910390205f018054610864906111ed565b9050146108a6576040517f08c379a000000000000000000000000000000000000000000000000000000000815260040161089d90611c2d565b60405180910390fd5b805f825f01516040516108b991906114da565b90815260200160405180910390205f820151815f0190816108da9190611c4b565b5060208201518160010190816108f09190611c4b565b5060408201518160020190816109069190611c4b565b506060820151816003019080519060200190610923929190610c8d565b506080820151816004019080519060200190610940929190610c8d565b5060a08201518160050190816109569190611d7c565b509050506001815f0151908060018154018082558091505060019003905f5260205f20015f90919091909150908161098e9190611c4b565b50805f01516040516109a091906114da565b60405180910390207f0e6a4bfdad0dec411057ff80cfe722c3cffed190a916432465a6e492ec802e49826020015183604001516040516109e1929190611e4b565b60405180910390a25050565b5f80825111610a31576040517f08c379a0000000000000000000000000000000000000000000000000000000008152600401610a2890611482565b60405180910390fd5b5f8083604051610a4191906114da565b90815260200160405180910390205f018054610a5c906111ed565b9050119050919050565b5f80825190505f8103610a7c575f915050610bf0565b5b6001811115610bd1575f6002600183610a969190611e80565b610aa09190611408565b90505f5b81811015610bc757826001826002610abc9190611eb3565b610ac69190611e80565b1015610b735784816002610ada9190611eb3565b81518110610aeb57610aea611193565b5b6020026020010151856001836002610b039190611eb3565b610b0d9190611e80565b81518110610b1e57610b1d611193565b5b6020026020010151604051602001610b37929190611f14565b604051602081830303815290604052805190602001205f1c858281518110610b6257610b61611193565b5b602002602001018181525050610bba565b84816002610b819190611eb3565b81518110610b9257610b91611193565b5b6020026020010151858281518110610bad57610bac611193565b5b6020026020010181815250505b8080600101915050610aa4565b5080915050610a7d565b825f81518110610be457610be3611193565b5b60200260200101519150505b919050565b508054610c01906111ed565b5f825580601f10610c125750610c2f565b601f0160209004905f5260205f2090810190610c2e9190610ce4565b5b50565b5080545f8255905f5260205f2090810190610c4d9190610cff565b50565b508054610c5c906111ed565b5f825580601f10610c6d5750610c8a565b601f0160209004905f5260205f2090810190610c899190610ce4565b5b50565b828054828255905f5260205f20908101928215610cd3579160200282015b82811115610cd2578251829081610cc29190611c4b565b5091602001919060010190610cab565b5b509050610ce09190610cff565b5090565b5b80821115610cfb575f815f905550600101610ce5565b5090565b5b80821115610d1e575f8181610d159190610bf5565b50600101610d00565b5090565b5f604051905090565b5f80fd5b5f80fd5b5f80fd5b5f80fd5b5f601f19601f8301169050919050565b7f4e487b71000000000000000000000000000000000000000000000000000000005f52604160045260245ffd5b610d8182610d3b565b810181811067ffffffffffffffff82111715610da057610d9f610d4b565b5b80604052505050565b5f610db2610d22565b9050610dbe8282610d78565b919050565b5f67ffffffffffffffff821115610ddd57610ddc610d4b565b5b610de682610d3b565b9050602081019050919050565b828183375f83830152505050565b5f610e13610e0e84610dc3565b610da9565b905082815260208101848484011115610e2f57610e2e610d37565b5b610e3a848285610df3565b509392505050565b5f82601f830112610e5657610e55610d33565b5b8135610e66848260208601610e01565b91505092915050565b5f60208284031215610e8457610e83610d2b565b5b5f82013567ffffffffffffffff811115610ea157610ea0610d2f565b5b610ead84828501610e42565b91505092915050565b5f819050919050565b610ec881610eb6565b82525050565b5f81519050919050565b5f82825260208201905092915050565b5f819050602082019050919050565b610f0081610eb6565b82525050565b5f610f118383610ef7565b60208301905092915050565b5f602082019050919050565b5f610f3382610ece565b610f3d8185610ed8565b9350610f4883610ee8565b805f5b83811015610f78578151610f5f8882610f06565b9750610f6a83610f1d565b925050600181019050610f4b565b5085935050505092915050565b5f81519050919050565b5f82825260208201905092915050565b5f819050602082019050919050565b5f60ff82169050919050565b610fc381610fae565b82525050565b5f610fd48383610fba565b60208301905092915050565b5f602082019050919050565b5f610ff682610f85565b6110008185610f8f565b935061100b83610f9f565b805f5b8381101561103b5781516110228882610fc9565b975061102d83610fe0565b92505060018101905061100e565b5085935050505092915050565b5f60608201905061105b5f830186610ebf565b818103602083015261106d8185610f29565b905081810360408301526110818184610fec565b9050949350505050565b61109481610eb6565b811461109e575f80fd5b50565b5f813590506110af8161108b565b92915050565b5f602082840312156110ca576110c9610d2b565b5b5f6110d7848285016110a1565b91505092915050565b5f81519050919050565b5f82825260208201905092915050565b8281835e5f83830152505050565b5f611112826110e0565b61111c81856110ea565b935061112c8185602086016110fa565b61113581610d3b565b840191505092915050565b5f6020820190508181035f8301526111588184611108565b905092915050565b5f8115159050919050565b61117481611160565b82525050565b5f60208201905061118d5f83018461116b565b92915050565b7f4e487b71000000000000000000000000000000000000000000000000000000005f52603260045260245ffd5b7f4e487b71000000000000000000000000000000000000000000000000000000005f52602260045260245ffd5b5f600282049050600182168061120457607f821691505b602082108103611217576112166111c0565b5b50919050565b5f81905092915050565b5f819050815f5260205f209050919050565b5f8154611245816111ed565b61124f818661121d565b9450600182165f8114611269576001811461127e576112b0565b60ff19831686528115158202860193506112b0565b61128785611227565b5f5b838110156112a857815481890152600182019150602081019050611289565b838801955050505b50505092915050565b5f6112c48284611239565b915081905092915050565b7f43726564656e7469616c206e6f7420666f756e640000000000000000000000005f82015250565b5f6113036014836110ea565b915061130e826112cf565b602082019050919050565b5f6020820190508181035f830152611330816112f7565b9050919050565b7f4e487b71000000000000000000000000000000000000000000000000000000005f52601160045260245ffd5b5f61136e82610eb6565b91507fffffffffffffffffffffffffffffffffffffffffffffffffffffffffffffffff82036113a05761139f611337565b5b600182019050919050565b7f4e487b71000000000000000000000000000000000000000000000000000000005f52601260045260245ffd5b5f6113e282610eb6565b91506113ed83610eb6565b9250826113fd576113fc6113ab565b5b828206905092915050565b5f61141282610eb6565b915061141d83610eb6565b92508261142d5761142c6113ab565b5b828204905092915050565b7f43726564656e7469616c2049442063616e6e6f7420626520656d7074790000005f82015250565b5f61146c601d836110ea565b915061147782611438565b602082019050919050565b5f6020820190508181035f83015261149981611460565b9050919050565b5f81905092915050565b5f6114b4826110e0565b6114be81856114a0565b93506114ce8185602086016110fa565b80840191505092915050565b5f6114e582846114aa565b915081905092915050565b7f43726564656e7469616c20646f6573206e6f74206578697374000000000000005f82015250565b5f6115246019836110ea565b915061152f826114f0565b602082019050919050565b5f6020820190508181035f83015261155181611518565b9050919050565b5f61156282610eb6565b915061156d83610eb6565b925082820390508181111561158557611584611337565b5b92915050565b5f81549050611599816111ed565b9050919050565b5f819050815f5260205f209050919050565b5f819050815f5260205f209050919050565b5f6020601f8301049050919050565b5f82821b905092915050565b5f6008830261160e7fffffffffffffffffffffffffffffffffffffffffffffffffffffffffffffffff826115d3565b61161886836115d3565b95508019841693508086168417925050509392505050565b5f819050919050565b5f61165361164e61164984610eb6565b611630565b610eb6565b9050919050565b5f819050919050565b61166c83611639565b6116806116788261165a565b8484546115df565b825550505050565b5f90565b611694611688565b61169f818484611663565b505050565b5b818110156116c2576116b75f8261168c565b6001810190506116a5565b5050565b601f821115611707576116d8816115a0565b6116e1846115c4565b810160208510156116f0578190505b6117046116fc856115c4565b8301826116a4565b50505b505050565b5f82821c905092915050565b5f6117275f198460080261170c565b1980831691505092915050565b5f61173f8383611718565b9150826002028217905092915050565b81810361175d575050611832565b6117668261158b565b67ffffffffffffffff81111561177f5761177e610d4b565b5b61178982546111ed565b6117948282856116c6565b5f601f8311600181146117c1575f84156117af578287015490505b6117b98582611734565b86555061182b565b601f1984166117cf876115b2565b96506117da866115a0565b5f5b82811015611801578489015482556001820191506001850194506020810190506117dc565b8683101561181e578489015461181a601f891682611718565b8355505b6001600288020188555050505b5050505050505b565b7f4e487b71000000000000000000000000000000000000000000000000000000005f52603160045260245ffd5b5f80fd5b5f80fd5b5f61187b61187684610dc3565b610da9565b90508281526020810184848401111561189757611896610d37565b5b6118a28482856110fa565b509392505050565b5f82601f8301126118be576118bd610d33565b5b81516118ce848260208601611869565b91505092915050565b5f67ffffffffffffffff8211156118f1576118f0610d4b565b5b602082029050602081019050919050565b5f80fd5b5f611918611913846118d7565b610da9565b9050808382526020820190506020840283018581111561193b5761193a611902565b5b835b8181101561198257805167ffffffffffffffff8111156119605761195f610d33565b5b80860161196d89826118aa565b8552602085019450505060208101905061193d565b5050509392505050565b5f82601f8301126119a05761199f610d33565b5b81516119b0848260208601611906565b91505092915050565b5f67ffffffffffffffff8211156119d3576119d2610d4b565b5b6119dc82610d3b565b9050602081019050919050565b5f6119fb6119f6846119b9565b610da9565b905082815260208101848484011115611a1757611a16610d37565b5b611a228482856110fa565b509392505050565b5f82601f830112611a3e57611a3d610d33565b5b8151611a4e8482602086016119e9565b91505092915050565b5f60c08284031215611a6c57611a6b611861565b5b611a7660c0610da9565b90505f82015167ffffffffffffffff811115611a9557611a94611865565b5b611aa1848285016118aa565b5f83015250602082015167ffffffffffffffff811115611ac457611ac3611865565b5b611ad0848285016118aa565b602083015250604082015167ffffffffffffffff811115611af457611af3611865565b5b611b00848285016118aa565b604083015250606082015167ffffffffffffffff811115611b2457611b23611865565b5b611b308482850161198c565b606083015250608082015167ffffffffffffffff811115611b5457611b53611865565b5b611b608482850161198c565b60808301525060a082015167ffffffffffffffff811115611b8457611b83611865565b5b611b9084828501611a2a565b60a08301525092915050565b5f60208284031215611bb157611bb0610d2b565b5b5f82015167ffffffffffffffff811115611bce57611bcd610d2f565b5b611bda84828501611a57565b91505092915050565b7f43726564656e7469616c20616c726561647920657869737473000000000000005f82015250565b5f611c176019836110ea565b9150611c2282611be3565b602082019050919050565b5f6020820190508181035f830152611c4481611c0b565b9050919050565b611c54826110e0565b67ffffffffffffffff811115611c6d57611c6c610d4b565b5b611c7782546111ed565b611c828282856116c6565b5f60209050601f831160018114611cb3575f8415611ca1578287015190505b611cab8582611734565b865550611d12565b601f198416611cc1866115a0565b5f5b82811015611ce857848901518255600182019150602085019450602081019050611cc3565b86831015611d055784890151611d01601f891682611718565b8355505b6001600288020188555050505b505050505050565b5f81519050919050565b5f819050815f5260205f209050919050565b601f821115611d7757611d4881611d24565b611d51846115c4565b81016020851015611d60578190505b611d74611d6c856115c4565b8301826116a4565b50505b505050565b611d8582611d1a565b67ffffffffffffffff811115611d9e57611d9d610d4b565b5b611da882546111ed565b611db3828285611d36565b5f60209050601f831160018114611de4575f8415611dd2578287015190505b611ddc8582611734565b865550611e43565b601f198416611df286611d24565b5f5b82811015611e1957848901518255600182019150602085019450602081019050611df4565b86831015611e365784890151611e32601f891682611718565b8355505b6001600288020188555050505b505050505050565b5f6040820190508181035f830152611e638185611108565b90508181036020830152611e778184611108565b90509392505050565b5f611e8a82610eb6565b9150611e9583610eb6565b9250828201905080821115611ead57611eac611337565b5b92915050565b5f611ebd82610eb6565b9150611ec883610eb6565b9250828202611ed681610eb6565b91508282048414831517611eed57611eec611337565b5b5092915050565b5f819050919050565b611f0e611f0982610eb6565b611ef4565b82525050565b5f611f1f8285611efd565b602082019150611f2f8284611efd565b602082019150819050939250505056fea26469706673582212206cb5705e70b4c12410deca14534b32f6267786ba5ba1c8bd2b86b6d1c3be6cda64736f6c63430008190033","linkReferences":{}},"methodIdentifiers":{"activeCredentialIds(uint256)":"3aa18d9a","getMerkleProof(string)":"3813688b","issueCredential(string)":"811f9487","revokeCredential(string)":"5e9a2d28","verifyCredential(string)":"bb3670ab"},"id":0}