{"abi":[{"type":"function","name":"createDID","inputs":[{"name":"id","type":"string","internalType":"string"},{"name":"document_json","type":"string","internalType":"string"}],"outputs":[],"stateMutability":"nonpayable"},{"type":"function","name":"resolveDID","inputs":[{"name":"id","type":"string","internalType":"string"}],"outputs":[{"name":"document_json","type":"string","internalType":"string"}],"stateMutability":"view"},{"type":"function","name":"updateDID","inputs":[{"name":"id","type":"string","internalType":"string"},{"name":"document_json","type":"string","internalType":"string"}],"outputs":[],"stateMutability":"nonpayable"},{"type":"event","name":"DIDCreated","inputs":[{"name":"id","type":"string","indexed":true,"internalType":"string"},{"name":"publicKey","type":"bytes","indexed":false,"internalType":"bytes"},{"name":"serviceEndpoint","type":"string","indexed":false,"internalType":"string"}],"anonymous":false},{"type":"event","name":"DIDUpdated","inputs":[{"name":"id","type":"string","indexed":true,"internalType":"string"},{"name":"newPublicKey","type":"bytes","indexed":false,"internalType":"bytes"},{"name":"newServiceEndpoint","type":"string","indexed":false,"internalType":"string"}],"anonymous":false}],"bytecode":{"object":"0x6080604052348015600e575f80fd5b506112d28061001c5f395ff3fe608060405234801561000f575f80fd5b506004361061003f575f3560e01c80631539a507146100435780639d7f0bbf1461005f578063b42a02b51461008f575b5f80fd5b61005d600480360381019061005891906107d4565b6100ab565b005b6100796004803603810190610074919061084a565b610282565b60405161008691906108f1565b60405180910390f35b6100a960048036038101906100a491906107d4565b6104f3565b005b5f8251116100ee576040517f08c379a00000000000000000000000000000000000000000000000000000000081526004016100e59061095b565b60405180910390fd5b5f80836040516100fe91906109b3565b90815260200160405180910390205f018054610119906109f6565b90501461015b576040517f08c379a000000000000000000000000000000000000000000000000000000000815260040161015290610a70565b60405180910390fd5b5f818060200190518101906101709190610c57565b90508280519060200120815f015180519060200120146101c5576040517f08c379a00000000000000000000000000000000000000000000000000000000081526004016101bc90610ce8565b60405180910390fd5b805f846040516101d591906109b3565b90815260200160405180910390205f820151815f0190816101f69190610eac565b50602082015181600101908161020c9190610fdd565b5060408201518160020190816102229190610eac565b509050508260405161023491906109b3565b60405180910390207f3be4ea2c38836f7fb088a2ae7e27e8f67aa143a130c984b2e50568bf98a9da97826020015183604001516040516102759291906110f4565b60405180910390a2505050565b60605f808360405161029491906109b3565b90815260200160405180910390205f0180546102af906109f6565b9050116102f1576040517f08c379a00000000000000000000000000000000000000000000000000000000081526004016102e890611173565b60405180910390fd5b5f808360405161030191906109b3565b90815260200160405180910390206040518060600160405290815f82018054610329906109f6565b80601f0160208091040260200160405190810160405280929190818152602001828054610355906109f6565b80156103a05780601f10610377576101008083540402835291602001916103a0565b820191905f5260205f20905b81548152906001019060200180831161038357829003601f168201915b505050505081526020016001820180546103b9906109f6565b80601f01602080910402602001604051908101604052809291908181526020018280546103e5906109f6565b80156104305780601f1061040757610100808354040283529160200191610430565b820191905f5260205f20905b81548152906001019060200180831161041357829003601f168201915b50505050508152602001600282018054610449906109f6565b80601f0160208091040260200160405190810160405280929190818152602001828054610475906109f6565b80156104c05780601f10610497576101008083540402835291602001916104c0565b820191905f5260205f20905b8154815290600101906020018083116104a357829003601f168201915b5050505050815250509050806040516020016104dc919061127c565b604051602081830303815290604052915050919050565b5f808360405161050391906109b3565b90815260200160405180910390205f01805461051e906109f6565b905011610560576040517f08c379a000000000000000000000000000000000000000000000000000000000815260040161055790611173565b60405180910390fd5b5f818060200190518101906105759190610c57565b90508280519060200120815f015180519060200120146105ca576040517f08c379a00000000000000000000000000000000000000000000000000000000081526004016105c190610ce8565b60405180910390fd5b805f846040516105da91906109b3565b90815260200160405180910390205f820151815f0190816105fb9190610eac565b5060208201518160010190816106119190610fdd565b5060408201518160020190816106279190610eac565b509050508260405161063991906109b3565b60405180910390207f04c6ceb221d0f1501fb32376bf9e432620c9be407d146f4bb798b43fc6bd175a8260200151836040015160405161067a9291906110f4565b60405180910390a2505050565b5f604051905090565b5f80fd5b5f80fd5b5f80fd5b5f80fd5b5f601f19601f8301169050919050565b7f4e487b71000000000000000000000000000000000000000000000000000000005f52604160045260245ffd5b6106e6826106a0565b810181811067ffffffffffffffff82111715610705576107046106b0565b5b80604052505050565b5f610717610687565b905061072382826106dd565b919050565b5f67ffffffffffffffff821115610742576107416106b0565b5b61074b826106a0565b9050602081019050919050565b828183375f83830152505050565b5f61077861077384610728565b61070e565b9050828152602081018484840111156107945761079361069c565b5b61079f848285610758565b509392505050565b5f82601f8301126107bb576107ba610698565b5b81356107cb848260208601610766565b91505092915050565b5f80604083850312156107ea576107e9610690565b5b5f83013567ffffffffffffffff81111561080757610806610694565b5b610813858286016107a7565b925050602083013567ffffffffffffffff81111561083457610833610694565b5b610840858286016107a7565b9150509250929050565b5f6020828403121561085f5761085e610690565b5b5f82013567ffffffffffffffff81111561087c5761087b610694565b5b610888848285016107a7565b91505092915050565b5f81519050919050565b5f82825260208201905092915050565b8281835e5f83830152505050565b5f6108c382610891565b6108cd818561089b565b93506108dd8185602086016108ab565b6108e6816106a0565b840191505092915050565b5f6020820190508181035f83015261090981846108b9565b905092915050565b7f4449442049442063616e6e6f7420626520656d707479000000000000000000005f82015250565b5f61094560168361089b565b915061095082610911565b602082019050919050565b5f6020820190508181035f83015261097281610939565b9050919050565b5f81905092915050565b5f61098d82610891565b6109978185610979565b93506109a78185602086016108ab565b80840191505092915050565b5f6109be8284610983565b915081905092915050565b7f4e487b71000000000000000000000000000000000000000000000000000000005f52602260045260245ffd5b5f6002820490506001821680610a0d57607f821691505b602082108103610a2057610a1f6109c9565b5b50919050565b7f44494420616c72656164792065786973747300000000000000000000000000005f82015250565b5f610a5a60128361089b565b9150610a6582610a26565b602082019050919050565b5f6020820190508181035f830152610a8781610a4e565b9050919050565b5f80fd5b5f80fd5b5f610aa8610aa384610728565b61070e565b905082815260208101848484011115610ac457610ac361069c565b5b610acf8482856108ab565b509392505050565b5f82601f830112610aeb57610aea610698565b5b8151610afb848260208601610a96565b91505092915050565b5f67ffffffffffffffff821115610b1e57610b1d6106b0565b5b610b27826106a0565b9050602081019050919050565b5f610b46610b4184610b04565b61070e565b905082815260208101848484011115610b6257610b6161069c565b5b610b6d8482856108ab565b509392505050565b5f82601f830112610b8957610b88610698565b5b8151610b99848260208601610b34565b91505092915050565b5f60608284031215610bb757610bb6610a8e565b5b610bc1606061070e565b90505f82015167ffffffffffffffff811115610be057610bdf610a92565b5b610bec84828501610ad7565b5f83015250602082015167ffffffffffffffff811115610c0f57610c0e610a92565b5b610c1b84828501610b75565b602083015250604082015167ffffffffffffffff811115610c3f57610c3e610a92565b5b610c4b84828501610ad7565b60408301525092915050565b5f60208284031215610c6c57610c6b610690565b5b5f82015167ffffffffffffffff811115610c8957610c88610694565b5b610c9584828501610ba2565b91505092915050565b7f444944204944206d69736d6174636800000000000000000000000000000000005f82015250565b5f610cd2600f8361089b565b9150610cdd82610c9e565b602082019050919050565b5f6020820190508181035f830152610cff81610cc6565b9050919050565b5f819050815f5260205f209050919050565b5f6020601f8301049050919050565b5f82821b905092915050565b5f60088302610d627fffffffffffffffffffffffffffffffffffffffffffffffffffffffffffffffff82610d27565b610d6c8683610d27565b95508019841693508086168417925050509392505050565b5f819050919050565b5f819050919050565b5f610db0610dab610da684610d84565b610d8d565b610d84565b9050919050565b5f819050919050565b610dc983610d96565b610ddd610dd582610db7565b848454610d33565b825550505050565b5f90565b610df1610de5565b610dfc818484610dc0565b505050565b5b81811015610e1f57610e145f82610de9565b600181019050610e02565b5050565b601f821115610e6457610e3581610d06565b610e3e84610d18565b81016020851015610e4d578190505b610e61610e5985610d18565b830182610e01565b50505b505050565b5f82821c905092915050565b5f610e845f1984600802610e69565b1980831691505092915050565b5f610e9c8383610e75565b9150826002028217905092915050565b610eb582610891565b67ffffffffffffffff811115610ece57610ecd6106b0565b5b610ed882546109f6565b610ee3828285610e23565b5f60209050601f831160018114610f14575f8415610f02578287015190505b610f0c8582610e91565b865550610f73565b601f198416610f2286610d06565b5f5b82811015610f4957848901518255600182019150602085019450602081019050610f24565b86831015610f665784890151610f62601f891682610e75565b8355505b6001600288020188555050505b505050505050565b5f81519050919050565b5f819050815f5260205f209050919050565b601f821115610fd857610fa981610f85565b610fb284610d18565b81016020851015610fc1578190505b610fd5610fcd85610d18565b830182610e01565b50505b505050565b610fe682610f7b565b67ffffffffffffffff811115610fff57610ffe6106b0565b5b61100982546109f6565b611014828285610f97565b5f60209050601f831160018114611045575f8415611033578287015190505b61103d8582610e91565b8655506110a4565b601f19841661105386610f85565b5f5b8281101561107a57848901518255600182019150602085019450602081019050611055565b868310156110975784890151611093601f891682610e75565b8355505b6001600288020188555050505b505050505050565b5f82825260208201905092915050565b5f6110c682610f7b565b6110d081856110ac565b93506110e08185602086016108ab565b6110e9816106a0565b840191505092915050565b5f6040820190508181035f83015261110c81856110bc565b9050818103602083015261112081846108b9565b90509392505050565b7f44494420646f6573206e6f7420657869737400000000000000000000000000005f82015250565b5f61115d60128361089b565b915061116882611129565b602082019050919050565b5f6020820190508181035f83015261118a81611151565b9050919050565b5f82825260208201905092915050565b5f6111ab82610891565b6111b58185611191565b93506111c58185602086016108ab565b6111ce816106a0565b840191505092915050565b5f82825260208201905092915050565b5f6111f382610f7b565b6111fd81856111d9565b935061120d8185602086016108ab565b611216816106a0565b840191505092915050565b5f606083015f8301518482035f86015261123b82826111a1565b9150506020830151848203602086015261125582826111e9565b9150506040830151848203604086015261126f82826111a1565b9150508091505092915050565b5f6020820190508181035f8301526112948184611221565b90509291505056fea264697066735822122022b37556468d6056af8175eea035531d22c5cebe245b22e4f343279e9d09b2d864736f6c63430008190033","linkReferences":{}},"methodIdentifiers":{"createDID(string,string)":"1539a507","resolveDID(string)":"9d7f0bbf","updateDID(string,string)":"b42a02b5"},"id":19}