{"abi":[{"type":"function","name":"sponsorTransaction","inputs":[{"name":"target","type":"address","internalType":"address"},{"name":"data","type":"bytes","internalType":"bytes"}],"outputs":[],"stateMutability":"payable"}],"bytecode":{"object":"0x6080604052348015600e575f80fd5b5061030f8061001c5f395ff3fe60806040526004361061001d575f3560e01c8063488b551114610021575b5f80fd5b61003b600480360381019061003691906101b0565b61003d565b005b5f8373ffffffffffffffffffffffffffffffffffffffff168383604051610065929190610249565b5f604051808303815f865af19150503d805f811461009e576040519150601f19603f3d011682016040523d82523d5f602084013e6100a3565b606091505b50509050806100e7576040517f08c379a00000000000000000000000000000000000000000000000000000000081526004016100de906102bb565b60405180910390fd5b50505050565b5f80fd5b5f80fd5b5f73ffffffffffffffffffffffffffffffffffffffff82169050919050565b5f61011e826100f5565b9050919050565b61012e81610114565b8114610138575f80fd5b50565b5f8135905061014981610125565b92915050565b5f80fd5b5f80fd5b5f80fd5b5f8083601f8401126101705761016f61014f565b5b8235905067ffffffffffffffff81111561018d5761018c610153565b5b6020830191508360018202830111156101a9576101a8610157565b5b9250929050565b5f805f604084860312156101c7576101c66100ed565b5b5f6101d48682870161013b565b935050602084013567ffffffffffffffff8111156101f5576101f46100f1565b5b6102018682870161015b565b92509250509250925092565b5f81905092915050565b828183375f83830152505050565b5f610230838561020d565b935061023d838584610217565b82840190509392505050565b5f610255828486610225565b91508190509392505050565b5f82825260208201905092915050565b7f5472616e73616374696f6e206661696c656400000000000000000000000000005f82015250565b5f6102a5601283610261565b91506102b082610271565b602082019050919050565b5f6020820190508181035f8301526102d281610299565b905091905056fea2646970667358221220078d60d945ee06e3fd59ad79bcdd1c7e703ba6e186ad1e91cde5b5ea32af240a64736f6c63430008190033","linkReferences":{}},"methodIdentifiers":{"sponsorTransaction(address,bytes)":"488b5511"},"id":0}